:020000040800F2
:100000000080012051010008D1010008D101000841
:10001000D1010008D1010008D10100080000000052
:10002000000000000000000000000000D1010008F6
:10003000D101000800000000D1010008D101000832
:10004000D1010008D1010008D1010008D101000848
:10005000D1010008D1010008D1010008D101000838
:10006000D1010008D1010008D1010008D101000828
:10007000D1010008D1010008D1010008D101000818
:10008000D1010008D1010008D1010008D101000808
:10009000D1010008D1010008D1010008D1010008F8
:1000A000D1010008D1010008D1010008D1010008E8
:1000B000D1010008D1010008D1010008D1010008D8
:1000C000D1010008D1010008D1010008D1010008C8
:1000D000D1010008D1010008D1010008D1010008B8
:1000E000D1010008D1010008D10100080000000082
:1000F0000000000000000000000000000000000000
:100100000000000000000000D1010008D10100083B
:10011000D1010008D1010008D1010008D101000877
:10012000D1010008D1010008D1010008D101000867
:10013000D1010008D1010008D1010008D101000857
:10014000D1010008D1010008D1010008D101000847
:1001500080B586B000AF194A194BD31A7B60184B93
:100160007B61184B3B610023FB600AE03A69531C3A
:100170003B617B69591C796112781A70FB68013305
:10018000FB60FA687B689A42F0D30F4A0F4BD31A90
:100190007B600E4B7B610023BB6005E07B69002226
:1001A0001A70BB680133BB60BA687B689A42F5D3AA
:1001B00000F028F800BF1837BD4680BD00000020C1
:1001C000000000205009000800000020000000206E
:1001D00080B400AFFEE700BF80B483B000AF00235F
:1001E0007B6002E07B6801337B607B68044A93425A
:1001F000F8D900BF00BF0C37BD4680BC704700BFB8
:100200001FA1070080B584B000AF094BBB600D2370
:100210003B7303237B730023BB730121044800F06D
:1002200009F807F10803184600F0BCF8FEE700BF24
:100230000010014080B483B000AF78600B46FB70C3
:10024000FB78012B4CD17B684E4A934206D14E4B32
:100250009B694D4A43F0040393618DE07B684B4AF0
:10026000934206D1484B9B69474A43F00803936188
:1002700082E07B68464A934206D1434B9B69424ADF
:1002800043F01003936177E07B68424A934206D1C2
:100290003D4B9B693C4A43F0200393616CE07B68D3
:1002A0003D4A934206D1384B9B69374A43F040039D
:1002B000936161E07B68394A934206D1324B9B6976
:1002C000314A43F08003936156E07B68344A93429D
:1002D00052D12D4B9B692C4A43F4807393614BE0C0
:1002E0007B68284A934206D1274B9B69264A23F014
:1002F0000403936140E07B68244A934206D1224B79
:100300009B69214A23F00803936135E07B68204A0A
:10031000934206D11C4B9B691B4A23F01003936147
:100320002AE07B681B4A934206D1174B9B69164A09
:1003300023F0200393611FE07B68174A934206D1A4
:10034000114B9B69104A23F04003936114E07B68D2
:10035000124A934206D10C4B9B690B4A23F080034F
:10036000936109E07B680E4A934205D1064B9B6975
:10037000054A23F48073936100BF0C37BD4680BCEF
:10038000704700BF0008014000100240000C01400F
:10039000001001400014014000180140001C014001
:1003A0000020014080B487B000AF786000237B61FB
:1003B0007B685B79032B38D800233B740023FB73E5
:1003C0007B681B79DB083B747B681B7903F00703B0
:1003D000FB737B685A797B689B791343DBB27B6143
:1003E000FB7B9B007A6902FA03F37B617B681B68E5
:1003F0003A7C53F82210FB7B9B000F2202FA03F396
:10040000DB4318467B681B683A7C014043F82210A6
:100410007B681B683A7C53F822007B681B683A7C37
:100420007969014343F82210B3E07B685B79052BBF
:1004300017D15B4BDB687A681279114601228A403A
:100440001146574A0B43D360554B9B687A68127923
:10045000114601228A40D2431146514A0B40936013
:1004600035E07B685B79042B17D14D4B9B687A682C
:100470001279114601228A401146494A0B43936082
:10048000474BDB687A681279114601228A40D243D1
:100490001146434A0B40D36019E07B685B79062B19
:1004A00015D13F4BDB687A681279114601228A40E8
:1004B00011463B4A0B43D360394B9B687A681279EB
:1004C000114601228A401146354A0B4393600023AE
:1004D000FB740023BB747B681B799B08FB747B68EF
:1004E0001B7903F00303BB742E4B9B692D4A43F029
:1004F000010393617B681B682B4A93422BD07B6876
:100500001B682A4A934224D07B681B68284A93427E
:100510001DD07B681B68274A934216D07B681B68F6
:10052000254A93420FD07B681B68244A934208D027
:100530007B681B68224A934201D106230CE000230A
:100540000AE0052308E0042306E0032304E0022375
:1005500002E0012300E000237B741A4AFB7C023393
:1005600052F82320797CBB7C9B0001FA03F31846E8
:100570001449FB7C0243023341F82320084B1B68DB
:100580007A681279114601228A401146044A0B43C7
:10059000136000237B6100BF1C37BD4680BC7047E1
:1005A000000401400010024000080140000C01401E
:1005B000001001400014014000180140001C0140DF
:1005C000002001400000014080B483B000AF78609B
:1005D0007B683D4A93420CD13C4BDB683B4A43F07D
:1005E0000403D360394BDB68384A23F00403D3603B
:1005F00064E07B68364A93420CD1344BDB68334A63
:1006000043F00803D360314BDB68304A23F0080322
:10061000D36053E07B682F4A93420CD12B4BDB68AD
:100620002A4A43F01003D360284BDB68274A23F0A3
:100630001003D36042E07B68274A93420CD1234BDE
:10064000DB68224A43F02003D360204BDB681F4A5B
:1006500023F02003D36031E07B68204A93420CD121
:100660001A4BDB68194A43F04003D360174BDB6831
:10067000164A23F04003D36020E07B68184A934277
:100680000CD1124BDB68114A43F08003D3600F4B4F
:10069000DB680E4A23F08003D3600FE07B68114AC9
:1006A00093420BD1094BDB68084A43F48073D36053
:1006B000064BDB68054A23F48073D36000BF0C3718
:1006C000BD4680BC704700BF0008014000100240DA
:1006D000000C0140001001400014014000180140CE
:1006E000001C01400020014080B485B000AF78605C
:1006F0000B46FB707B689A68FB7822FA03F3DBB247
:1007000003F00103FB73FB7B18461437BD4680BC26
:10071000704780B485B000AF78607B689B68FB81D0
:10072000FB8918461437BD4680BC704780B483B03F
:1007300000AF78600B46FB701346BB70BB78012B93
:1007400009D17B68DB68FA78012101FA02F21A43C9
:100750007B68DA6009E07B68DB68FA78012101FADE
:1007600002F2D2431A407B68DA6000BF0C37BD4604
:1007700080BC704780B483B000AF78600B467B804C
:100780007A887B68DA6000BF0C37BD4680BC704752
:1007900080B483B000AF78600B46FB707B68DB6889
:1007A000FA78012101FA02F25A407B68DA6000BF50
:1007B0000C37BD4680BC704780B483B000AF0346A1
:1007C0000A46FB711346BB71BB79012B33D1FB7910
:1007D0001F2B0AD8344B1B68FA79012101FA02F267
:1007E0001146314A0B43136059E0FB791F2B0FD997
:1007F000FB793E2B0CD82D4B1B68FA7902F01F02B7
:10080000012101FA02F21146284A0B43136046E027
:10081000FB793F2B43D9FB795E2B40D8244B1B68D7
:10082000FA7902F03F02012101FA02F21146204A50
:100830000B43136033E0FB791F2B0AD81D4B1B6859
:10084000FA79012101FA02F211461A4A0B431360A8
:1008500025E0FB791F2B0FD9FB793E2B0CD8164BCB
:100860001B68FA7902F01F02012101FA02F2114617
:10087000114A0B43136012E0FB793F2B0FD9FB7930
:100880005E2B0CD80D4B1B68FA7902F03F02012158
:1008900001FA02F21146094A0B431360FFE700BF59
:1008A0000C37BD4680BC704700E100E004E100E089
:1008B00008E100E080E100E084E100E088E100E0A0
:1008C00080B485B000AF78600B46FB70FB789B0866
:1008D000FB73FB7803F00303BB73BB7BDB00DBB272
:1008E00004337B73FB7B9B0003F1604303F564439C
:1008F00019687B7B7A689A40FB7B9B0003F160431D
:1009000003F564430A431A6000BF1437BD4680BC38
:10091000704780B483B000AF0346FB710B4B5B693B
:10092000FA79012101FA02F21340002B09D0074B9A
:100930005B69FA79012101FA02F21146034A0B437D
:10094000536100BF0C37BD4680BC704700040140B6
:04000005080001519D
:00000001FF
